S00E00004D61737465722E73726563AA
S11300000C942A000C943F000C943F000C943F0085
S11300100C943F000C943F000C943F000C943F0060
S11300200C943F000C943F000C943F000C943F0050
S11300300C943F000C943F000C943F000C943F0040
S11300400C943F000C943F000C943F000C943F0030
S11300500C943F0011241FBECFE5D4E0DEBFCDBF1A
S113006010E0A0E6B0E0EAECF3E002C005900D92E7
S1130070A439B107D9F70E9479010C94E3010C94D7
S1130080000082B3806482BB00C082B38F7B82BBDA
S11300900895CF93DF93D82F662321F082B3806134
S11300A082BB03C082B38F7E82BB82B38F7D82BB4F
S11300B081B38F6081BBC2B3C07F8D2F82958F7057
S11300C08C2B82BB0E944100DF70DC2BD2BB0E94D0
S11300D04100CF60C2BBDF91CF910895882321F006
S11300E082B3806182BB03C082B38F7E82BB82B342
S11300F0806282BB81B3807F81BB82B3806482BB18
S113010000C090B39295907F82B38F7B82BB00C076
S113011082B3806482BB00C080B38F7022B32F7B14
S113012022BB892B089580E00E946E008823DCF3B3
S113013082E090E00197F1F780E00E946E0008955C
S1130140CF93C82F0E94930060E08C2F0E94490037
S1130150CF910895611104C080580E94A0000895B1
S113016080540E94A000089581E00E94A000089598
S1130170CF93C82F0E949300CA3049F4803410F4FE
S113018080E401C080E080580E94A00004C061E0C7
S11301908C2F0E944900CF910895CF93DF93FC01E7
S11301A003C00E94B800FE01EF01219680818111F5
S11301B0F8CFDF91CF9108951F93CF93DF93182F3A
S11301C081B38F6781BB80E89EE30197F1F782B327
S11301D0826082BB82B3816082BB0E94410080E85E
S11301E093E10197F1F70E944100C0E4D0E0CE0111
S11301F00197F1F70E944100CE010197F1F782B314
S11302008E7F82BB0E9441002197F1F788E20E9411
S1130210A00088E00E94A0000E94B40086E00E9432
S1130220A000812F0E94A000DF91CF911F9108951B
S11302300F931F93CF93DF93C82F8A016F3B11F461
S1130240D6E301C0D7E30E94B40080E690E00E94A8
S1130250CD0080E38C0F0E94B80085E690E00E94F8
S1130260CD008D2F0E94B80061E080E00E94AA00BA
S11302708FE690E00E94CD009801ADECBCEC0E94AA
S1130280D401EC01D695C795D695C795D695C79553
S11302908C2F805D0E94B8008EE20E94B800CE01CF
S11302A0880F991FCC0FDD1FCC0FDD1FCC0FDD1F76
S11302B0C80FD91FC8018C1B9D0B805D0E94B8001C
S11302C089E790E00E94CD00DF91CF911F910F91BB
S11302D0089587EA91E60197F1F700C0000083B31F
S11302E08F3FE9F787EA91E60197F1F700C0000034
S11302F008958FEF81BB12BA14BA85BB8ABB8BBB3E
S113030080EA87BB80E488BB81E88EB984E78DB935
S11303108CE00E94DC000E94B4008CE790E00E9414
S1130320CD00C3B3CF3FE9F30E946901CF3E59F03A
S113033018F4CF3B59F0F5CFCB3F59F0CE3F89F7B6
S1130340F1E0EFEB08C0F1E0EFE705C0F2E0EFE722
S113035002C0F2E0EFEBEBBBFFB9779BFECF8FEF70
S11303608BBB2FE986E891E0215080409040E1F773
S113037000C00000EBBB1FB8779BFECF8FEF8BBB99
S11303802FB182E3289F90011124A1E8B0E80E94D4
S1130390D401AC01440F452F441F550B51956E2FCA
S11303A08F2F0E941801BDCFA29FB001B39FC0013F
S11303B0A39F700D811D1124911DB29F700D811D8D
S10D03C01124911D0895F894FFCF55
S11303CA506F743A00204573636C61766F3A005635
S11303DA6F6C74696F733A20002056005370692059
S11303EA2D3E203C2D0A4269646972656363696F14
S10703FA6E616C00C0
S9030000FC
