:100000000C942A000C94A5020C9447000C94470011
:100010000C9447000C9447000C9447000C94470044
:100020000C9447000C9447000C9447000C94470034
:100030000C9447000C9447000C9447000C94470024
:100040000C9447000C9447000C9447000C948E02CB
:100050000C94470011241FBECFE5D4E0DEBFCDBF16
:1000600010E0A0E6B0E0E0E1F7E002C005900D92FC
:10007000A839B107D9F720E0A8E9B0E001C01D9286
:10008000A13AB207E1F70E94EF010C9486030C94A9
:1000900000008BB388608BBB00C08BB3877F8BBBAA
:1000A0000895CF93C82F662321F08BB382608BBB5A
:1000B00003C08BB38D7F8BBB8BB38B7F8BBB8AB322
:1000C00080688ABB8AB380648ABB8AB380628ABB39
:1000D0008AB380618ABB8BB38F7E8BBB8BB38F7DE2
:1000E0008BBB8BB38F7B8BBB8BB38F778BBBCC23C3
:1000F0001CF48BB380618BBBC6FF03C08BB38062E3
:100100008BBBC5FF03C08BB380648BBBC4FF03C034
:100110008BB380688BBB0E9449008BB38F7E8BBBF7
:100120008BB38F7D8BBB8BB38F7B8BBB8BB38F776D
:100130008BBBC3FF03C08BB380618BBBC2FF03C00B
:100140008BB380628BBBC1FF03C08BB380648BBB5E
:10015000C0FF03C08BB380688BBB0E9449008BB388
:1001600080688BBB8BB380648BBB8BB380628BBB93
:100170008BB380618BBBCF910895882321F08BB323
:1001800082608BBB03C08BB38D7F8BBB8BB38460D2
:100190008BBB8AB38F778ABB8AB38F7B8ABB8AB3C8
:1001A0008F7D8ABB8AB38F7E8ABB8BB388608BBB03
:1001B00000C0CF9902C080E001C080E1CE9980628A
:1001C000CD998064CC9980689BB3977F9BBB00C01E
:1001D0009BB398609BBB00C0CF998160CE99826031
:1001E000CD998460CC9988609BB3977F9BBB089521
:1001F00080E00E94BD008823DCF382E090E001975C
:10020000F1F780E00E94BD000895CF93C82F0E94AF
:10021000F80060E08C2F0E945100CF910895611189
:1002200004C080580E940501089580540E94050171
:10023000089581E00E9405010895CF93C82F0E9480
:10024000F800CA3049F4803410F480E401C080E042
:1002500080580E94050104C061E08C2F0E9451006B
:10026000CF910895CF93DF93FC0103C00E941D013D
:10027000FE01EF01219680818111F8CFDF91CF91AE
:1002800008951F93CF93DF93182F8AB382608ABBA0
:100290008AB384608ABB8AB388608ABB8AB3806869
:1002A0008ABB8AB380648ABB8AB380628ABB8AB302
:1002B00080618ABB80E89EE30197F1F78BB380648D
:1002C0008BBB8BB380688BBB0E94490080E893E1B5
:1002D0000197F1F70E944900C0E4D0E0CE010197F8
:1002E000F1F70E944900CE010197F1F78BB38F77A8
:1002F0008BBB0E9449002197F1F788E20E9405011B
:1003000088E00E9405010E94190186E00E94050113
:10031000812F0E940501DF91CF911F91089530E058
:1003200014C090919C00992391F090E00BC0209113
:100330009C00222349F0E3E2F4EF3197F1F700C08B
:1003400000009F5F903198F33F5F381750F3089596
:10035000EF92FF920F931F93CF93DF93FC017B01EA
:10036000EA0168EE73E00E945E03D7016C9302C05D
:10037000E85EF340E83EB3E0FB07D4F7CF0164E664
:1003800070E00E945E03688302C0E456F109E4361F
:10039000F105DCF7CF016AE070E00E945E03D9014D
:1003A0006C9301C03A97EA30F105E4F7D801EC9379
:1003B000DF91CF911F910F91FF90EF90089582B33D
:1003C000805882BB83B7855083BF12BE0E9419013B
:1003D000109299001092980010929C0008957894C1
:1003E00081B38FEF81BB91B384E0892781BB82B356
:1003F000846082BB8AB7806E8ABF85B7886085BFFC
:100400008BB780648BBF82B782BF88B7826088BF9A
:1004100089B7826089BF8DE083BF83E08CBF8CE0A9
:100420000E94410188E083BF80919C00811114C02B
:1004300080E690E00E9432010BC082E080939B0036
:1004400003C08F5F80939B0080919B008B30C8F32B
:1004500080919C00882389F380919C00813021F752
:100460000E94190161E080E00E940F018DE690E09A
:100470000E94320180919A000E948F0180919C001D
:10048000882391F20E94190182B3806882BB83B7EE
:100490008B5F83BF17C08091980090919900803A3C
:1004A0009F4081F482E080939C0061E083E00E94A1
:1004B0000F0184E790E00E94320182E00E948F01E8
:1004C0000E94DF0180919C00813029F3ADCFFC01B7
:1004D000808190E002C0959587956A95E2F7F1E0FA
:1004E0008F27817008950F931F93CF938C01C62F90
:1004F0008FE493EC0197F1F700C000006C2FC80166
:100500000E9467028111FACF8FE493EC0197F1F713
:1005100000C00000CF911F910F9108951F920F927C
:100520000FB60F9211248F939F9380919800909112
:100530009900019690939900809398009F918F91D4
:100540000F900FBE0F901F9018951F920F920FB62D
:100550000F9211240F931F932F933F934F935F9309
:100560006F937F938F939F93AF93BF93EF93FF937B
:1005700080919C00811109C090919B0090939A00FA
:100580008F5F80939C0012BE81C0813009F07EC0D5
:1005900067E080E390E00E9467028823A1F10E9457
:1005A000190183E890E00E94320182B3806882BB27
:1005B00081E00E948F0182B3805882BB81E00E945B
:1005C0008F0182B3806882BB81E00E948F0182B379
:1005D000805882BB81E00E948F0182B3806882BB19
:1005E00081E00E948F0182B3805882BB81E00E942B
:1005F0008F0112BE0E94190110929900109298006A
:1006000010929C0043C083B7855083BF0EE910E071
:100610002DE930E04FE950E060EA70E08091980009
:10062000909199000E94A80160E085E00E940F016E
:1006300080E990E00E9432018091A000805D0E94DC
:100640001D018EE20E941D0180919F00805D0E942D
:100650001D0180919D00805D0E941D0180919E0082
:10066000805D0E941D0185E990E00E94320182E0D8
:100670000E948F0182B3805882BB12BE0E94190172
:10068000109299001092980010929C0062E080E312
:1006900090E00E947302FF91EF91BF91AF919F9103
:1006A0008F917F916F915F914F913F912F911F910A
:1006B0000F910F900FBE0F901F90189597FB072E6C
:1006C00016F4009407D077FD09D00E94720307FC4E
:1006D00005D03EF4909581959F4F08957095619552
:1006E0007F4F0895AA1BBB1B51E107C0AA1FBB1F68
:1006F000A617B70710F0A61BB70B881F991F5A95AE
:10070000A9F780959095BC01CD010895F894FFCF8D
:10071000496E696369616E646F2E2E2E004C697399
:10072000746F3F0045786365646973746520747005
:100730006F2E00546F6461766961206E6F21210015
:0807400054706F3A00732E00A3
:00000001FF
