:100000000C942A000C9434000C9434000C943400AA
:100010000C9434000C9434000C9434000C94340090
:100020000C9434000C9434000C9434000C94340080
:100030000C9434000C9434000C9434000C94340070
:100040000C9434000C9434000C9434000C94340060
:100050000C94340011241FBECFE5D4E0DEBFCDBF29
:100060000E94D7020C94EB020C94000085B38064CC
:1000700085BB00C085B38F7B85BB0895CF93DF938D
:10008000D82F662321F085B3806185BB03C085B37B
:100090008F7E85BB85B38F7D85BB84B38F6084BB2A
:1000A000C5B3C07F8D2F82958F708C2B85BB0E942E
:1000B0003600DF70DC2BD5BB0E943600CF60C5BB9D
:1000C000DF91CF910895882321F085B3806185BBAE
:1000D00003C085B38F7E85BB85B3806285BB84B347
:1000E000807F84BB85B3806485BB00C093B3929549
:1000F000907F85B38F7B85BB00C085B3806485BB53
:1001000000C083B38F7025B32F7B25BB892B089547
:1001100080E00E9463008823DCF382E090E0019796
:10012000F1F780E00E9463000895CF93C82F0E94EA
:10013000880060E08C2F0E943E00CF9108956111ED
:1001400004C080580E949500089580540E94950034
:10015000089581E00E9495000895CF93C82F0E94D2
:100160008800CA3049F4803410F480E401C080E093
:1001700080580E94950004C061E08C2F0E943E00D0
:10018000CF9108951F93CF93DF93182F84B38F6778
:1001900084BB80E89EE30197F1F785B3826085BB5D
:1001A00085B3816085BB0E94360080E893E10197AA
:1001B000F1F70E943600C0E4D0E0CE010197F1F7DC
:1001C0000E943600CE010197F1F785B38E7F85BB83
:1001D0000E9436002197F1F788E20E94950088E09E
:1001E0000E9495000E94A90086E00E949500812F40
:1001F0000E949500DF91CF911F910895FC018081AD
:1002000090E002C0959587956A95E2F7F1E08F2717
:10021000817008950F931F93CF938C01C62F83EDA8
:1002200090E30197F1F700C000006C2FC8010E9415
:10023000FE008111FACF83ED90E30197F1F700C042
:100240000000CF911F910F910895EF92FF920F93AD
:100250001F93CF93DF937C018BB38FEF8BBBF701A1
:1002600080818A3008F462C168C12BB381E090E0DC
:10027000002E02C0880F991F0A94E2F782278BBBD9
:100280000130110569F02BB3A8014150510981E0FB
:1002900090E002C0880F991F4A95E2F7822B8BBB32
:1002A0000000C4E0D0E03BC10230110509F468C091
:1002B0000330110509F4C8C00130110509F02EC141
:1002C000C530D105F1F024F4C430D10541F026C188
:1002D000C630D10559F1C730D105E9F11FC16C2FE6
:1002E00089E390E00E94FE00882309F417C10E9470
:1002F000A900F70110826C2F89E390E00E940A01A7
:100300000DC16C2F89E390E00E94FE00882309F460
:1003100005C189E30E94AD00F70180818F5F808372
:100320006C2F89E390E00E940A01F8C06C2F89E3EA
:1003300090E00E94FE00882309F4F0C086E30E944A
:10034000AD00F70180818F5F80836C2F89E390E09F
:100350000E940A01E3C06C2F89E390E00E94FE0036
:10036000882309F4DBC083E30E94AD00F70180819C
:100370008F5F80836C2F89E390E00E940A01CEC0DA
:10038000C530D10511F124F4C430D10549F0C6C0FF
:10039000C630D10579F1C730D10509F440C0BEC0DF
:1003A0006C2F89E390E00E94FE00882309F4B6C018
:1003B00080E30E94AD00F70180818F5F80836C2F06
:1003C00089E390E00E940A01A9C06C2F89E390E0C4
:1003D0000E94FE00882309F4A1C088E30E94AD00BA
:1003E000F70180818F5F80836C2F89E390E00E940A
:1003F0000A0194C06C2F89E390E00E94FE008823DC
:1004000009F48CC085E30E94AD00F70180818F5F05
:1004100080836C2F89E390E00E940A017FC06C2FDB
:1004200089E390E00E94FE00882309F477C082E30C
:100430000E94AD00F70180818F5F80836C2F89E37C
:1004400090E00E940A016AC0C530D10561F124F430
:10045000C430D10549F062C0C630D105C1F1C73002
:10046000D10509F448C05AC06C2F89E390E00E947E
:10047000FE00882309F452C0F701808160E08150BA
:100480000E949F0080E20E94AD00F70180818150B0
:100490008083808160E00E949F006C2F89E390E060
:1004A0000E940A013BC06C2F89E390E00E94FE008D
:1004B0008823A1F187E30E94AD00F70180818F5F5F
:1004C00080836C2F89E390E00E940A0127C06C2F83
:1004D00089E390E00E94FE00882301F184E30E94FA
:1004E000AD00F70180818F5F80836C2F89E390E0FE
:1004F0000E940A0113C06C2F89E390E00E94FE0065
:10050000882361F081E30E94AD00F70180818F5F55
:1005100080836C2F89E390E00E940A012196C83005
:10052000D1050CF4C1CE0F5F1F4F02C001E010E0F7
:10053000043011050CF499CE33C08DEF8BBB000055
:1005400064E089E390E00E94FE00882349F00E9465
:10055000A900F701108264E089E390E00E940A019B
:1005600087EF8BBB000064E089E390E00E94FE000F
:100570008823B1F0F701808160E081500E949F00E4
:1005800080E20E94AD00F7018081815080838081EC
:1005900060E00E949F0064E089E390E00E940A010D
:1005A000DF91CF911F910F91FF90EF900895CF931E
:1005B000DF931F92CDB7DEB78AB38F608ABB8BB350
:1005C0008FEF8BBB8CE00E94C2001982CE01019696
:0A05D0000E942501FBCFF894FFCF35
:00000001FF
