:020000020000FC
:100000000C942A000C9465010C9466010C94670111
:100010000C9468010C9469010C946A010C946B01B6
:100020000C946C010C946D010C946E010C946F0196
:100030000C9470010C9471010C9472010C94730176
:100040000C9474010C9475010C9476010C94770156
:100050000C94780104E00EBF0FE50DBF0FE001BB6B
:100060000FEF0ABB07BB04BB41E050E020E010E00B
:1000700000E00BBB08BB05BBC0EFAFE060E170E088
:1000800041FD04C043FDD3C02CD0FACF01D0FECF38
:1000900007EF02BB0000859B09C0869B10C0879BB1
:1000A00017C0939A9098879BAAC00895F6D0859B15
:1000B000FECFF3D051E09CEE98BB440FE1CFEDD0E2
:1000C000869BFECFEAD052E090E898BB440FD8CF91
:1000D000E4D0879BFECFE1D054E09CE898BB440F6E
:1000E000CFCF0BEF02BB0000849B73C0859B50C039
:1000F000869B2DC0929A91980000849B5FC0859B3F
:100100003CC0869B19C0879B6FC0919A9098000055
:10011000849B49C0859B26C0869B03C0879B6FC07C
:10012000089521E0BAD0869BFECFB7D040FD75D0B0
:1001300042FD7AD0440FA4CF22E0AFD0869BFECF01
:10014000ACD040FD6AD042FD6FD0440F99CF23E080
:10015000A4D0869BFECFA1D040FD5FD042FD64D0ED
:10016000440F8ECF24E099D0859BFECF96D040FDE2
:1001700054D042FD59D0440F83CF25E08ED0859BCB
:10018000FECF8BD040FD49D042FD4ED0440F78CFFA
:1001900026E083D0859BFECF80D040FD3ED042FD3F
:1001A00043D0440F6DCF27E078D0819BFECF75D030
:1001B00040FD33D042FD38D0440F62CF28E06DD0EF
:1001C000849BFECF6AD040FD28D042FD2DD0440F45
:1001D00057CF29E062D0879BFECF5FD040FD1DD076
:1001E00042FD22D0440F4CCF20E057D0879BFECF5A
:1001F00054D040FD12D042FD17D0440F41CF4DD016
:10020000879BFECF4AD041E010E090E030E070E004
:100210001BBB18BB15BB0C944000220F220F220FF2
:10022000220F122F1BBB0895122B1BBB08952CD03D
:1002300050FD0DC051FD06C052FD00C03B0F3A30CD
:10024000C0F40AC0B317C4F0B31B3B2F05C03B9FDB
:10025000302D3A3098F400C0329535BB2AD041E0B9
:1002600010E090E030E070E01BBB18BB15BB0C94B5
:1002700040003A50360FF0CF3B1BEECF3A50760F8E
:100280003A30E0F7372BE8CF312FB12F3A23BC2398
:10029000B795B795B795B7950895D5E6E4EAEA9589
:1002A000F1F7DA95D9F7D1E0DA95F1F7000000001F
:1002B0000895D2E1ECEBF4ECFA95F1F7EA95D9F771
:1002C000DA95C1F700000000089518951895189563
:1002D00018951895189518951895189518951895B6
:1002E00018951895189518951895189518951895A6
:0202F00018955F
:00000001FF
