S012000050726163746963615F352E7372656357
S11300000C942A000C9447000C9447000C9447006D
S11300100C9447000C9447000C9447000C94470040
S11300200C9447000C9447000C9447000C94470030
S11300300C9447000C9447000C9447000C94470020
S11300400C9447000C9447000C9447000C94AC01AA
S11300500C94470011241FBECFE5D4E0DEBFCDBF12
S113006010E0A0E6B0E0E2EDF3E002C005900D92EE
S1130070A236B107D9F720E0A2E6B0E001C01D9294
S1130080A436B207E1F70E9455010C94E7010C94E1
S1130090000085B3806485BB00C085B38F7B85BBBE
S11300A00895CF93DF93D82F662321F085B3806121
S11300B085BB03C085B38F7E85BB85B38F7D85BB30
S11300C084B38F6084BBC5B3C07F8D2F82958F703E
S11300D08C2B85BB0E944900DF70DC2BD5BB0E94B2
S11300E04900CF60C5BBDF91CF910895882321F0EB
S11300F085B3806185BB03C085B38F7E85BB85B323
S1130100806285BB84B3807F84BB85B3806485BBF8
S113011000C093B39295907F85B38F7B85BB00C05D
S113012085B3806485BB00C083B38F7025B32F7BF8
S113013025BB892B089580E00E9476008823DCF398
S113014082E090E00197F1F780E00E947600089544
S1130150CF93C82F0E949B0060E08C2F0E94510017
S1130160CF910895611104C080580E94A800089599
S113017080540E94A800089581E00E94A800089578
S1130180CF93C82F0E949B00CA3049F4803410F4E6
S113019080E401C080E080580E94A80004C061E0AF
S11301A08C2F0E945100CF9108951F93CF93DF931A
S11301B0182F84B38F6784BB80E89EE30197F1F71F
S11301C085B3826085BB85B3816085BB0E9449008D
S11301D080E893E10197F1F70E944900C0E4D0E080
S11301E0CE010197F1F70E944900CE010197F1F782
S11301F085B38E7F85BB0E9449002197F1F788E281
S11302000E94A80088E00E94A8000E94BC0086E02A
S11302100E94A800812F0E94A800DF91CF911F9116
S11302200895FC011092630082B782BF80818F5FC2
S1130230808380818B3511F480E4808380818034D5
S113024021F080810E94C00003C080E20E94C000AF
S113025060E0809162000E94B2000895FC018081F8
S113026090E002C0959587956A95E2F7F1E08F27B3
S1130270817008950F931F93CF938C01C62F83ED44
S113028090E30197F1F700C000006C2FC8010E94B1
S11302902E018111FACF83ED90E30197F1F700C0AD
S11302A00000CF911F910F910895789482B782BF77
S11302B088B7826088BF89B7826089BF83B7886046
S11302C083BF83B7846083BF83B7826083BF83EFB8
S11302D08CBF8AB38E6F8ABB8BB381608BBB8CE07F
S11302E00E94D5008EE00E94A80088E083BF60E0F1
S11302F089E390E00E942E01882311F183B78830AE
S113030051F480916100813031F483B78B5F83BFF6
S113031082E08093610080916200803128F480E65D
S113032090E00E94110107C0109262000E94BC007C
S113033081E08093610060E089E390E00E943A01EB
S113034080916100813099F683B78D3081F683B74F
S1130350855083BF12BECBCF1F920F920FB60F9260
S113036011242F933F934F935F936F937F938F93B6
S11303709F93AF93BF93EF93FF93809163008F5F3D
S113038080936300843091F4109263008091610043
S1130390815080936100809162008F5F809362003E
S11303A060E00E94B2008FE380936000FF91EF91C0
S11303B0BF91AF919F918F917F916F915F914F9179
S11303C03F912F910F900FBE0F901F901895F894A6
S10503D0FFCF59
S10503D23F01E5
S9030000FC
