:100000000C942A000C948B000C943C000C943C0043
:100010000C943C000C943C000C943C000C943C0070
:100020000C943C000C943C000C943C000C943C0060
:100030000C943C000C943C000C943C000C943C0050
:100040000C943C000C943C000C943C000C943C0040
:100050000C943C0011241FBECFE5D4E0DEBFCDBF21
:1000600020E0A0E6B0E001C01D92A136B207E1F7A2
:100070000E943E000C94DB000C94000078948AB33C
:100080008FEF8ABB9BB39BBB97B387BB98B398BBDF
:1000900091B381BB91B384E0892781BB82B3846033
:1000A00082BB8AB7806E8ABF85B7886085BF8BB7F1
:1000B00080648BBF81E090E003C080936000019674
:1000C00087309105D4F3F6CFFC01808190E002C027
:1000D000959587956A95E2F7F1E08F2781700895ED
:1000E0000F931F93CF938C01C62F83ED90E301975D
:1000F000F1F700C000006C2FC8010E94640081115C
:10010000FACF83ED90E30197F1F700C00000CF91A3
:100110001F910F9108951F920F920FB60F92112405
:100120002F933F934F935F936F937F938F939F93FF
:10013000AF93BF93EF93FF93809160008330A1F062
:1001400028F4813049F0823059F01FC08530A9F081
:1001500080F08630B9F019C01BBA81E088BB15C0A9
:1001600084E28BBB18BA11C081E88BBB81E088BBED
:100170000CC085EA8BBB18BA08C085EA8BBB81E04E
:1001800088BB03C087EE8BBB18BA62E080E390E0C7
:100190000E947000FF91EF91BF91AF919F918F915D
:1001A0007F916F915F914F913F912F910F900FBE73
:0A01B0000F901F901895F894FFCFF0
:00000001FF
