:100000000C942A000C9434000C9434000C943400AA
:100010000C9434000C9434000C9434000C94340090
:100020000C9434000C94FD010C9434000C943400B6
:100030000C9434000C9434000C9434000C94340070
:100040000C9434000C9434000C9434000C9407028B
:100050000C94340011241FBECFE5D4E0DEBFCDBF29
:100060000E94A1000C9405030C94000020E030E0F5
:100070004AE754E40E9470020E9411020DC0E3E2BC
:10008000F4EF3197F1F700C000008F5F01C080E00E
:100090008430A8F3685E7340693EF3E07F07BCF7E5
:1000A0002CC06A3F71054CF083E294EF0197F1F7A1
:1000B00000C000006A5F710920C0643671054CF011
:1000C000E7EAF1E63197F1F700C0000064567109E4
:1000D00014C06A3071054CF083EC99E00197F1F798
:1000E00000C000006A50710908C0E9EFF0E03197E4
:1000F000F1F700C0000061507109161617068CF266
:1001000008958CBF60E070E080E09FE30E943600BD
:1001100008958CBF6AEF7EE78AEA9EE30E9436006C
:1001200008958CBF85E193EA0197F1F700C00000C4
:1001300008958CBF88E591E50197F1F700C00000B4
:100140000895789487B38FEF87BB83E088BF82E000
:1001500089BF12BE8BE183BF8BE10E9499008DE1C4
:100160000E9499008FE10E94990081E20E9499000B
:100170008DE10E9499008FE10E94990081E20E9426
:10018000990083E20E9499008FE10E94990081E228
:100190000E94990083E20E94990085E20E949900E2
:1001A00081E20E94990083E20E94990085E20E9408
:1001B000990087E20E94990083E20E94990085E2FB
:1001C0000E94990087E20E94990089E20E949900AA
:1001D00085E20E94990087E20E94990089E20E94CC
:1001E00099008CE20E94990087E20E94990089E2BE
:1001F0000E9499008CE20E9499008EE20E94990070
:1002000089E20E9499008CE20E9499008EE20E948D
:1002100099008EE30E9499008FE10E9481008BE19A
:100220000E9481008AE10E9489008FE10E94910072
:100230008BE10E9489008AE10E94810083E20E9492
:1002400089008FE10E9481008BE10E9481008AE198
:100250000E9489008FE10E9491008BE10E94890039
:100260008AE10E94810083E20E94910081E20E9463
:1002700091008FE10E9481008BE10E9481008AE160
:100280000E9489008FE10E9491008BE10E94890009
:100290008AE10E94810081E10E94910080E10E9438
:1002A00091008FE00E9481008DE00E9481008CE02F
:1002B0000E9489008FE00E9491008DE00E948900D9
:1002C0008CE00E94810081E10E94890085E20E9409
:1002D00091008BE10E94890085E20E9491008BE1F0
:1002E0000E94890085E20E94890082E30E948900C1
:1002F00085E20E94910082E30E94890089E20E94C7
:10030000910085E20E94910083E20E94810082E3D5
:100310000E94990080E30E9499008EE20E94990059
:100320008CE20E94990089E20E9499008CE20E946E
:1003300099008EE20E94990080E30E94990082E376
:100340000E94990080E30E9499008EE20E94990029
:100350008CE20E94990089E20E94990087E20E9443
:10036000990085E20E94990083E20E94990081E24F
:100370000E94990083E20E94990085E20E94990000
:1003800087E20E94990089E20E9499008CE20E9413
:1003900099008EE20E94990080E30E94990085E214
:1003A0000E9491008BE10E94890085E20E949100E9
:1003B0008BE10E94890085E20E94890082E30E940D
:1003C000890085E20E94910082E30E94890089E20F
:1003D0000E94910085E20E94910082E30E948100C8
:1003E00084E30E9489008FE10E94890084E30E94D7
:1003F000890084E30E948900AFCE1F920F920FB64E
:100400000F9211240F900FBE0F901F9018951F92FE
:100410000F920FB60F9211240F900FBE0F901F90E6
:1004200018950E9418026894B1110C946A020895FC
:100430000E944F0288F09F5798F0B92F9927B75123
:10044000B0F0E1F0660F771F881F991F1AF0BA9578
:10045000C9F714C0B13091F00E946902B1E008956B
:100460000C946902672F782F8827B85F39F0B93F5D
:10047000CCF3869577956795B395D9F73EF490952B
:100480008095709561957F4F8F4F9F4F089557FDD1
:100490009058440F551F59F05F3F71F04795880FF2
:1004A00097FB991F61F09F3F79F087950895121689
:1004B00013061406551FF2CF4695F1DF08C0161635
:1004C00017061806991FF1CF8695710561050894E6
:1004D0000895E894BB2766277727CB0197F90895FD
:1004E0000E9483020C94F4020E94E60238F00E94FB
:1004F000ED0220F0952311F00C94DD020C94E30240
:1005000011240C946A020E94470270F3959FC1F374
:10051000950F50E0551F629FF001729FBB27F00DB1
:10052000B11D639FAA27F00DB11DAA1F649F662706
:10053000B00DA11D661F829F2227B00DA11D621F55
:10054000739FB00DA11D621F839FA00D611D221F0F
:10055000749F3327A00D611D231F849F600D211DF3
:10056000822F762F6A2F11249F5750409AF0F1F076
:1005700088234AF0EE0FFF1FBB1F661F771F881FDF
:1005800091505040A9F79E3F510580F00C94DD0238
:100590000C946A025F3FE4F3983ED4F38695779516
:1005A0006795B795F795E7959F5FC1F7FE2B880F85
:1005B000911D9695879597F9089597F99F6780E81B
:1005C00070E060E008959FEF80EC089500240A94A5
:1005D0001616170618060906089500240A9412161E
:1005E0001306140605060895092E0394000C11F451
:1005F000882352F0BB0F40F4BF2B11F460FF04C0FE
:0E0600006F5F7F4F8F4F9F4F0895F894FFCF8D
:00000001FF
