:100000000C942A000C9447000C9447000C94470071
:100010000C9447000C9447000C9447000C94470044
:100020000C9447000C9447000C9447000C94470034
:100030000C9447000C9447000C9447000C94470024
:100040000C9447000C9447000C9447000C94470014
:100050000C94470011241FBECFE5D4E0DEBFCDBF16
:1000600010E0A0E6B0E0E2E2FAE002C005900D92F6
:10007000AA36B107D9F720E0AAE6B0E001C01D9288
:10008000AE37B207E1F70E9471020C940F050C9491
:10009000000085B3806485BB00C085B38F7B85BBC2
:1000A0000895CF93DF93D82F662321F085B3806125
:1000B00085BB03C085B38F7E85BB85B38F7D85BB34
:1000C00084B38F6084BBC5B3C07F8D2F82958F7042
:1000D0008C2B85BB0E944900DF70DC2BD5BB0E94B6
:1000E0004900CF60C5BBDF91CF910895882321F0EF
:1000F00085B3806185BB03C085B38F7E85BB85B327
:10010000806285BB84B3807F84BB85B3806485BBFC
:1001100000C093B39295907F85B38F7B85BB00C061
:1001200085B3806485BB00C083B38F7025B32F7BFC
:1001300025BB892B089580E00E9476008823DCF39C
:1001400082E090E00197F1F780E00E947600089548
:10015000CF93C82F0E949B0060E08C2F0E9451001B
:10016000CF910895611104C080580E94A80008959D
:1001700080540E94A800089581E00E94A80008957C
:10018000CF93C82F0E949B00CA3049F4803410F4EA
:1001900080E401C080E080580E94A80004C061E0B3
:1001A0008C2F0E945100CF910895CF93DF93FC01D3
:1001B00003C00E94C000FE01EF01219680818111E1
:1001C000F8CFDF91CF9108951F93CF93DF93182F2E
:1001D00084B38F6784BB80E89EE30197F1F785B312
:1001E000826085BB85B3816085BB0E94490080E841
:1001F00093E10197F1F70E944900C0E4D0E0CE01FD
:100200000197F1F70E944900CE010197F1F785B3FC
:100210008E7F85BB0E9449002197F1F788E20E94FA
:10022000A80088E00E94A8000E94BC0086E00E940E
:10023000A800812F0E94A800DF91CF911F910895FF
:100240008F929F92AF92BF92CF92DF92EF92FF92E6
:100250000F931F93CF93DF934B015C016A01E90178
:10026000992344F4B094A09490948094811C911CA0
:10027000A11CB11CC501B40128EE33E040E050E000
:100280000E948F03F601208306C0F8EE8F1AF3E078
:100290009F0AA108B10888EE881683E09806A10499
:1002A000B1049CF7C501B40124E630E040E050E021
:1002B0000E948F03288305C0E4E68E1A9108A108E6
:1002C000B108F4E68F169104A104B104ACF7C5019E
:1002D000B4012AE030E040E050E00E948F03F801D2
:1002E000208305C0FAE08F1A9108A108B1088AE0BE
:1002F00088169104A104B104ACF7F7018082DF9164
:10030000CF911F910F91FF90EF90DF90CF90BF9012
:10031000AF909F908F90089520E030E04AE754E43A
:100320000E94FA020E949B020DC0E3E2F4EF3197B3
:10033000F1F700C000008F5F01C080E08430A8F3B7
:10034000685E7340693EF3E07F07BCF72CC06A3FEC
:1003500071054CF083E294EF0197F1F700C00000C3
:100360006A5F710920C0643671054CF0E7EAF1E676
:100370003197F1F700C000006456710914C06A306B
:1003800071054CF083EC99E00197F1F700C0000093
:100390006A50710908C0E9EFF0E03197F1F700C049
:1003A000000061507109161617068CF20895AF927D
:1003B000BF92CF92DF92EF92FF920F931F9361E073
:1003C00081E00E94B20020916A0030916B00409160
:1003D0006C0050916D0060916E0070916F00809183
:1003E0007000909171000F2EF8E8AF2EF02D0F2EB7
:1003F000F3E1BF2EF02DC12CD12CE12CF12C00E02B
:1004000010E00E94AE03AA24AA940F2EF3E0BF2EA0
:10041000F02D0E94090420937200309373004093E2
:10042000740050937500609376007093770080930A
:10043000780090937900B0917200A0917300F091D0
:100440007400E09175008091760080917700809132
:100450007800809179000F2EFAE7EF2EF0E0FF2E62
:10046000F02D0BE710E02CE730E04DE750E06B2F6C
:100470007A2F8F2F9E2F0E94200180917D00805D1A
:100480000E94C00080917C00805D0E94C00080912D
:100490007B00805D0E94C0008EE20E94C0008091BF
:1004A0007A00805D0E94C00083E40E94C00060E08A
:1004B00070E080E09FE30E948C011F910F91FF90FC
:1004C000EF90DF90CF90BF90AF900895FC01208116
:1004D00081E090E002C0880F991F6A95E2F78223BD
:1004E000089587E487B98BE986B98CE00E94E4001F
:1004F00080E690E00E94D50086B1806486B966E00F
:1005000086E290E00E9466028111F9CF84B195B134
:1005100080936A0090936B0010926C0010926D00B3
:1005200010926E0010926F00109270001092710085
:100530000E94D701E1CF0E94A2026894B1110C94ED
:10054000F40208950E94D90288F09F5798F0B92FBD
:100550009927B751B0F0E1F0660F771F881F991FF8
:100560001AF0BA95C9F714C0B13091F00E94F302A5
:10057000B1E008950C94F302672F782F8827B85FB5
:1005800039F0B93FCCF3869577956795B395D9F750
:100590003EF490958095709561957F4F8F4F9F4F5A
:1005A000089557FD9058440F551F59F05F3F71F063
:1005B0004795880F97FB991F61F09F3F79F08795CA
:1005C0000895121613061406551FF2CF4695F1DF53
:1005D00008C0161617061806991FF1CF86957105E3
:1005E000610508940895E894BB2766277727CB0117
:1005F00097F908950E940D030C947E030E947003E6
:1006000038F00E94770320F0952311F00C946703D3
:100610000C946D0311240C94F4020E94D10270F327
:10062000959FC1F3950F50E0551F629FF001729F97
:10063000BB27F00DB11D639FAA27F00DB11DAA1FA6
:10064000649F6627B00DA11D661F829F2227B00DF3
:10065000A11D621F739FB00DA11D621F839FA00D7E
:10066000611D221F749F3327A00D611D231F849FCE
:10067000600D211D822F762F6A2F11249F57504025
:100680009AF0F1F088234AF0EE0FFF1FBB1F661FA0
:10069000771F881F91505040A9F79E3F510580F069
:1006A0000C9467030C94F4025F3FE4F3983ED4F398
:1006B000869577956795B795F795E7959F5FC1F70D
:1006C000FE2B880F911D9695879597F9089597F9B8
:1006D0009F6780E870E060E008959FEF80EC0895E8
:1006E00000240A9416161706180609060895002411
:1006F0000A9412161306140605060895092E03948B
:10070000000C11F4882352F0BB0F40F4BF2B11F4FE
:1007100060FF04C06F5F7F4F8F4F9F4F0895052E7E
:1007200097FB1EF400940E94A60357FD07D00E9479
:10073000DE0407FC03D04EF40C94A60350954095BC
:10074000309521953F4F4F4F5F4F0895909580957D
:10075000709561957F4F8F4F9F4F0895DF93CF9393
:100760001F930F939A9DF02D219FF00D8B9DF00DFF
:100770008A9DE02DF10D039FF00D029FE00DF11D0C
:100780004E9DE00DF11D5E9DF00D4F9DF00D7F9390
:100790006F93BF92AF925F934F93D5010E94000574
:1007A0008B01AC01D7010E940005EB01E80FF91F96
:1007B000D6010E94FE032F913F91D6010E940005B1
:1007C000C60FD71FE81FF91FAF91BF910E94FE030C
:1007D0002F913F910E940005C60FD71FE81FF91FF8
:1007E000D6010E940005E60FF71F9801BE01CF0158
:1007F00011240F911F91CF91DF9108950E94000560
:10080000460F571FC81FD91F08F4319608956894E2
:1008100001C0E894F92FF12B12F00C943B04A0E0F6
:10082000B0E0E5E1F4E00C94AD04092E059422F467
:100830000E949704112392F4F0E80F26FFEFE09452
:10084000F09400951095B094C094D094A194BF0AF0
:10085000CF0ADF0AEF0AFF0A0F0B1F0B0E944604A4
:1008600007FC0E949704CDB7DEB7ECE00C94C904F6
:10087000689401C0E8948F929F92CF93DF930E9477
:100880004604DF91CF919F908F90089588249924FA
:10089000F401E401B0E49F93AA279A158B049C0409
:1008A000ED05FE05CF05D007A10798F4AD2FDC2F8D
:1008B000CF2FFE2FE92D982C892E982F872F762F5A
:1008C000652F542F432F322F2227B85031F7BF9175
:1008D00027C01B2EBF91BB27220F331F441F551F5C
:1008E000661F771F881F991F881C991CEE1FFF1F0A
:1008F000CC1FDD1FAA1FBB1F8A149B04EC05FD053E
:10090000CE05DF05A007B10748F08A189B08EC095F
:10091000FD09CE09DF09A00BB10B21601A94E1F6A5
:100920002EF49401AF01BE01CD01000C0895609535
:1009300070958095909530954095509521953F4FB5
:100940004F4F5F4F6F4F7F4F8F4F9F4F08952F92A5
:100950003F924F925F926F927F928F929F92AF924F
:10096000BF92CF92DF92EF92FF920F931F93CF939C
:10097000DF93CDB7DEB7CA1BDB0B0FB6F894DEBF33
:100980000FBECDBF09942A88398848885F846E8459
:100990007D848C849B84AA84B984C884DF80EE80A3
:1009A000FD800C811B81AA81B981CE0FD11D0FB6AC
:1009B000F894DEBF0FBECDBFED010895A1E21A2E5F
:1009C000AA1BBB1BFD010DC0AA1FBB1FEE1FFF1FF3
:1009D000A217B307E407F50720F0A21BB30BE40B43
:1009E000F50B661F771F881F991F1A9469F760958A
:1009F0007095809590959B01AC01BD01CF01089544
:100A0000A29FB001B39FC001A39F700D811D11244F
:100A1000911DB29F700D811D1124911D0895F894B0
:020A2000FFCF06
:0A0A2200566F6C74616A653A0000BB
:00000001FF
