:100000000C942A000C9482020C9447000C94470034
:100010000C9447000C9447000C9447000C94470044
:100020000C9447000C9447000C9447000C94470034
:100030000C9447000C9447000C948C020C944700DD
:100040000C9447000C9447000C9447000C940A024F
:100050000C94470011241FBECFE5D4E0DEBFCDBF16
:1000600010E0A0E6B0E0E4EBF6E002C005900D92EF
:10007000A437B107D9F720E0A4E7B0E001C01D9292
:10008000A338B207E1F70E9470010C9458030C9456
:10009000000085B3806485BB00C085B38F7B85BBC2
:1000A0000895CF93DF93D82F662321F085B3806125
:1000B00085BB03C085B38F7E85BB85B38F7D85BB34
:1000C00084B38F6084BBC5B3C07F8D2F82958F7042
:1000D0008C2B85BB0E944900DF70DC2BD5BB0E94B6
:1000E0004900CF60C5BBDF91CF910895882321F0EF
:1000F00085B3806185BB03C085B38F7E85BB85B327
:10010000806285BB84B3807F84BB85B3806485BBFC
:1001100000C093B39295907F85B38F7B85BB00C061
:1001200085B3806485BB00C083B38F7025B32F7BFC
:1001300025BB892B089580E00E9476008823DCF39C
:1001400082E090E00197F1F780E00E947600089548
:10015000CF93C82F0E949B0060E08C2F0E9451001B
:10016000CF910895611104C080580E94A80008959D
:1001700080540E94A800089581E00E94A80008957C
:10018000CF93C82F0E949B00CA3049F4803410F4EA
:1001900080E401C080E080580E94A80004C061E0B3
:1001A0008C2F0E945100CF910895CF93DF93FC01D3
:1001B00003C00E94C000FE01EF01219680818111E1
:1001C000F8CFDF91CF9108951F93CF93DF93182F2E
:1001D00084B38F6784BB80E89EE30197F1F785B312
:1001E000826085BB85B3816085BB0E94490080E841
:1001F00093E10197F1F70E944900C0E4D0E0CE01FD
:100200000197F1F70E944900CE010197F1F785B3FC
:100210008E7F85BB0E9449002197F1F788E20E94FA
:10022000A80088E00E94A8000E94BC0086E00E940E
:10023000A800812F0E94A800DF91CF911F910895FF
:10024000AF92BF92CF92DF92EF92FF920F931F93E4
:10025000CF93DF936B017C015A01E901992344F4A8
:10026000F094E094D094C094C11CD11CE11CF11C0A
:10027000C701B60124E630E040E050E00E94FD02F4
:10028000F501208305C0F4E6CF1AD108E108F10892
:1002900084E6C816D104E104F104ACF7C701B60145
:1002A0002AE030E040E050E00E94FD02288305C0D3
:1002B000EAE0CE1AD108E108F108FAE0CF16D1043D
:1002C000E104F104ACF7F801C082DF91CF911F91F6
:1002D0000F91FF90EF90DF90CF90BF90AF90089577
:1002E000789481B3806F81BB8FEE82BB8FEF87BB29
:1002F00018BA8AB7806E8ABF85B7826085BF8BB710
:1003000080648BBF80E687B98BEB86B980E480BFC1
:1003100082B782BF88B7826088BF88B7816088BF94
:1003200089B7826089BF83B7886083BF83B78460E1
:1003300083BF83B7816083BF83EF8CBF8CE00E9453
:10034000E40085E690E00E94D50060E080E00E9435
:10035000B20080916400805D0E94C00080916300C3
:10036000805D0E94C00060E083E00E94B200809146
:100370006200805D0E94C00080916100805D0E94EB
:10038000C00060E086E00E94B20080916000805D65
:100390000E94C00080918200805D0E94C000809118
:1003A0008000813039F561E080E00E94B2008EE685
:1003B00090E00E94D5008091780090917900A09102
:1003C0007A00B0917B00BB231CF48DE20E94C00038
:1003D00080917E00805D0E94C00080917D00805DE4
:1003E0000E94C0008EE20E94C00080917C00805D6F
:1003F0000E94C00080918000823009F0A6CF0E9448
:10040000BC0010927F001092800085E690E00E9470
:10041000D5009BCF1F920F920FB60F9211248F938E
:10042000809181008F5F8093810080918100843072
:1004300009F062C0809182008F5F809382001092E9
:10044000810080918000813029F480917F008F5F4E
:1004500080937F0080917F00853019F482E0809343
:100460008000809182008A3039F41092820080915D
:1004700060008F5F8093600080916000863039F467
:1004800010926000809161008F5F80936100809185
:1004900061008A3039F410926100809162008F5FB0
:1004A0008093620080916200863039F4109262007D
:1004B000809163008F5F80936300809163008A3036
:1004C00039F410926300809164008F5F8093640020
:1004D00080916400823081F480916300843061F403
:1004E00010926400109263001092620010926100FA
:1004F00010926000109282008F910F900FBE0F90AB
:100500001F9018951F920F920FB60F9211240F9003
:100510000FBE0F901F9018951F920F920FB60F925B
:1005200011240F931F932F933F934F935F936F93D8
:100530007F938F939F93AF93BF93EF93FF938FEF2F
:1005400088BB2FE38DE093E0215080409040E1F79D
:1005500000C0000018BA85B190E0A0E0B0E0809340
:10056000740090937500A0937600B093770020916B
:100570007400309175004091760050917700ACEB9B
:10058000B2E00E941C032FEF30E040E050E00E94F8
:10059000FD02DA01C901885C9109A109B1098093C2
:1005A000780090937900A0937A00B0937B0081E06B
:1005B00080938000609178007091790080917A003A
:1005C00090917B000CE710E02DE730E04EE750E023
:1005D0000E942001FF91EF91BF91AF919F918F9168
:1005E0007F916F915F914F913F912F911F910F914B
:1005F0000F900FBE0F901F901895052E97FB1EF4BD
:1006000000940E94140357FD07D00E94270307FCA3
:1006100003D04EF40C9414035095409530952195D9
:100620003F4F4F4F5F4F089590958095709561951E
:100630007F4F8F4F9F4F08950E944903A59F900DB4
:10064000B49F900DA49F800D911D11240895A1E2E7
:100650001A2EAA1BBB1BFD010DC0AA1FBB1FEE1F3C
:10066000FF1FA217B307E407F50720F0A21BB30B87
:10067000E40BF50B661F771F881F991F1A9469F703
:1006800060957095809590959B01AC01BD01CF015F
:100690000895A29FB001B39FC001A39F700D811D5B
:1006A0001124911DB29F700D811D1124911D08957B
:0406B000F894FFCFEC
:1006B400030905030230303A30303A3030005465D3
:0406C4006D703A001B
:00000001FF
