:100000000C942A000C9447000C9447000C94470071
:100010000C9447000C9447000C9447000C94470044
:100020000C9447000C9447000C9447000C94470034
:100030000C9447000C9447000C9457030C94470011
:100040000C9447000C9447000C9447000C944D030B
:100050000C94470011241FBECFE5D4E0DEBFCDBF16
:1000600010E0A0E6B0E0E8E2F8E002C005900D92F2
:10007000AA38B107D9F720E0AAE8B0E001C01D9284
:10008000A739B207E1F70E9421030C9412040C94E3
:10009000000085B3806485BB00C085B38F7B85BBC2
:1000A0000895CF93DF93D82F662321F085B3806125
:1000B00085BB03C085B38F7E85BB85B38F7D85BB34
:1000C00084B38F6084BBC5B3C07F8D2F82958F7042
:1000D0008C2B85BB0E944900DF70DC2BD5BB0E94B6
:1000E0004900CF60C5BBDF91CF910895882321F0EF
:1000F00085B3806185BB03C085B38F7E85BB85B327
:10010000806285BB84B3807F84BB85B3806485BBFC
:1001100000C093B39295907F85B38F7B85BB00C061
:1001200085B3806485BB00C083B38F7025B32F7BFC
:1001300025BB892B089580E00E9476008823DCF39C
:1001400082E090E00197F1F780E00E947600089548
:10015000CF93C82F0E949B0060E08C2F0E9451001B
:10016000CF910895611104C080580E94A80008959D
:1001700080540E94A800089581E00E94A80008957C
:10018000CF93C82F0E949B00CA3049F4803410F4EA
:1001900080E401C080E080580E94A80004C061E0B3
:1001A0008C2F0E945100CF910895CF93DF93FC01D3
:1001B00003C00E94C000FE01EF01219680818111E1
:1001C000F8CFDF91CF9108951F93CF93DF93182F2E
:1001D00084B38F6784BB80E89EE30197F1F785B312
:1001E000826085BB85B3816085BB0E94490080E841
:1001F00093E10197F1F70E944900C0E4D0E0CE01FD
:100200000197F1F70E944900CE010197F1F785B3FC
:100210008E7F85BB0E9449002197F1F788E20E94FA
:10022000A80088E00E94A8000E94BC0086E00E940E
:10023000A800812F0E94A800DF91CF911F910895FF
:10024000AF92BF92CF92DF92EF92FF920F931F93E4
:10025000CF93DF936B017C015A01E901992344F4A8
:10026000F094E094D094C094C11CD11CE11CF11C0A
:10027000C701B60124E630E040E050E00E94BD0333
:10028000F501208305C0F4E6CF1AD108E108F10892
:1002900084E6C816D104E104F104ACF7C701B60145
:1002A0002AE030E040E050E00E94BD03288305C012
:1002B000EAE0CE1AD108E108F108FAE0CF16D1043D
:1002C000E104F104ACF7F801C082DF91CF911F91F6
:1002D0000F91FF90EF90DF90CF90BF90AF90089577
:1002E000FC01808190E002C0959587956A95E2F7C0
:1002F000F1E08F27817008950F931F93CF938C01A6
:10030000C62F83ED90E30197F1F700C000006C2F3A
:10031000C8010E9470018111FACF83ED90E301972B
:10032000F1F700C00000CF911F910F910895FC01DB
:10033000208181E090E002C0880F991F6A95E2F762
:1003400082230895CF93DF93C82FD62F61E08CE3EB
:1003500090E00E9497018111F9CF8C2F90E09FBB14
:100360008EBBDDBBF8948CB384608CBB8CB3826095
:100370008CBB7894DF91CF910895CF93C82F61E023
:100380008CE390E00E9497018111F9CF8C2F90E0CF
:100390009FBB8EBB8CB381608CBB8DB3CF91089516
:1003A0000F931F930E94BC0080E690E00E94D5004E
:1003B00060918E0070918F00072E000C880B990BB6
:1003C00004E910E023E930E046E950E00E94200112
:1003D00080919600805D0E94C00080919300805DB6
:1003E0000E94C00080919400805D0E94C00061E086
:1003F00080E00E94B20080918E000E94BD01809337
:100400009200682F70E080E090E023E930E046E958
:1004100050E00E94200180919300805D0E94C00006
:100420008EE20E94C00080919400805D0E94C00016
:1004300086E70E94C0001F910F9108950F931F93AC
:10044000CF93DF9300D01F92CDB7DEB788B38FEF85
:1004500088BB00E010E08FE3898366C028B381E0A9
:1004600090E0002E02C0880F991F0A94E2F78227BD
:1004700088BB0115110569F028B3A8014150510945
:1004800081E090E002C0880F991F4A95E2F7822B25
:1004900088BB000084E090E09B838A833EC00330E9
:1004A0001105B1F58A819B8186309105A1F08730D5
:1004B000910501F1049761F56A8186E390E00E945D
:1004C0007001882329F16A8186E390E00E947C0113
:1004D0009CE399831DC06A8186E390E00E947001CD
:1004E0008823B1F06A8186E390E00E947C018EE36C
:1004F00089830EC06A8186E390E00E9470018823A0
:1005000039F06A8186E390E00E947C019BE2998346
:100510008A819B8101969B838A838A819B8108972C
:100520000CF4BDCF0F5F1F4F043011050CF496CFB4
:1005300099819B32D1F480919000811116C083B7CC
:10054000855083BF81E08093900080918E009091D0
:100550008F00019790938F0080938E0090938D0071
:1005600080938C000E94D00164C089818C33F9F49F
:10057000809190008130D9F480918E0090918F000D
:10058000019790938F0080938E0099236CF48FEFE6
:100590009FEF90938F0080938E000E94BC0085E6B1
:1005A00090E00E94D50045C00E94D00142C09981D0
:1005B0009E3321F580919000813001F580918E006D
:1005C00090918F00019690938F0080938E002091E0
:1005D0008C0030918D00281739076CF42F5F3F4F46
:1005E00030938F0020938E000E94BC0085E690E03F
:1005F0000E94D5001EC00E94D0011BC089818B3291
:10060000C1F4809190008130A1F412BE83B78B5F5A
:1006100083BF1092900010928F0010928E00109263
:100620008D0010928C000E94BC0081E790E00E9437
:10063000D5000F900F900F90DF91CF911F910F91E8
:100640000895789487B38F6087BB88B38FEF88BB9A
:1006500080E687B99BEB96B980BF82B782BF88B727
:10066000826088BF88B7816088BF89B7826089BF90
:1006700083B7886083BF83B7846083BF83B781609B
:1006800083BF83EF8CBF8CE00E94E40081E790E0A1
:100690000E94D5000E941E02FDCF1F920F920FB63E
:1006A0000F9211240F900FBE0F901F9018951F925C
:1006B0000F920FB60F9211242F933F934F935F9396
:1006C0006F937F938F939F93AF93BF93EF93FF931A
:1006D00020918E0030918F00211542E034076CF09C
:1006E00080E092E090938F0080938E000E94BC0087
:1006F0008DE790E00E94D5001BC085B180939500E6
:1007000042E3849FC00111246FEF70E00E94A903AF
:1007100060938A0070938B00822F0E94A2018091C7
:100720008E0090918F00019690938F0080938E00A1
:10073000FF91EF91BF91AF919F918F917F916F91B9
:100740005F914F913F912F910F900FBE0F901F908F
:10075000189597FB072E16F4009407D077FD09D063
:100760000E94DC0307FC05D03EF4909581959F4FD5
:100770000895709561957F4F0895052E97FB1EF49F
:1007800000940E94D40357FD07D00E94F00307FC99
:1007900003D04EF40C94D403509540953095219598
:1007A0003F4F4F4F5F4F089590958095709561959D
:1007B0007F4F8F4F9F4F0895AA1BBB1B51E107C06E
:1007C000AA1FBB1FA617B70710F0A61BB70B881FE1
:1007D000991F5A95A9F780959095BC01CD01089570
:1007E000A1E21A2EAA1BBB1BFD010DC0AA1FBB1F35
:1007F000EE1FFF1FA217B307E407F50720F0A21BA7
:10080000B30BE40BF50B661F771F881F991F1A9413
:1008100069F760957095809590959B01AC01BD013D
:08082000CF010895F894FFCF09
:100828004469723A0053696E206C6563747572612D
:100838000053656E73616E646F2E2E2E0045455011
:0A084800524F4D204C6C656E6100AC
:00000001FF
