S012000050726163746963615F392E7372656353
S11300000C942A000C943C000C943C000C943C008E
S11300100C943C000C943C000C943C000C943C006C
S11300200C943C000C943C000C943C000C943C005C
S11300300C943C000C943C000C94D8000C943C00B0
S11300400C943C000C943C000C943C000C943C003C
S11300500C943C0011241FBECFE5D4E0DEBFCDBF1D
S113006020E0A0E6B0E001C01D92A236B207E1F79D
S11300700E949E000C94E2000C940000FB019091FD
S11300806000913049F070F0923061F060E050E02F
S113009040E020E090E00BC060EF50EE40EC20E840
S11300A09FE005C06FE057E043E021E090EF833329
S11300B020F48081982390832AC03DEC380F333399
S11300C038F48081982390838081282B20831FC05B
S11300D02AE9280F233338F4808198239083808180
S11300E0482B408314C027E6280F233338F480813B
S11300F0982390838081582B508309C08C5C833370
S113010030F48081982390838081682B6083809170
S113011060008F5F809360008FE292EF0197F1F7A8
S113012000C000000895FC01208181E090E002C03D
S1130130880F991F6A95E2F78223089578948AB309
S11301408ABB8BB38BBB87B38FEF87BB98B398BB4A
S113015094B384BB85B385BB80E687B986E986B949
S113016080916000833020F487B18F5F87B905C028
S113017087B18C7F87B91092600086B1806486B99C
S113018066E086E290E00E9493008111F9CF85B188
S11301908093610090916000923028F468E370E0ED
S11301A00E943E00DDCF65E370E00E943E00D8CFA0
S11301B01F920F920FB60F9211240F900FBE0F9043
S10B01C01F901895F894FFCF7D
S9030000FC
