S01500006D6963726F5F6D61657374726F2E737265639B
S11300000C942A000C9434000C9434000C943400A6
S11300100C9434000C9434000C9434000C9434008C
S11300200C9434000C9434000C9434000C9434007C
S11300300C9434000C9434000C9434000C9434006C
S11300400C9434000C9434000C9434000C9434005C
S11300500C94340011241FBECFE5D4E0DEBFCDBF25
S11300600E9442000C947E000C940000FC018081EC
S113007090E002C0959587956A95E2F7F1E08F27A5
S1130080817008958FEB87BB8FEF8ABB14BA85BB51
S11300908BBB81E08EB981E58DB960E083E390E0AC
S11300A00E9436008823C9F38FEB8BBB8EEF8FB988
S11300B0779BFECF8FB18FE78BBB80EF8FB9779B98
S11300C0FECF8FEF8BBB8FB12FEF89EF90E02150E4
S11300D080409040E1F700C0000060E083E390E0DE
S11300E00E9436008111F9CF2FEF89EF90E0215063
S11300F080409040E1F700C00000CFCFF894FFCFDC
S9030000FC
