S01000004F6C6564546573742E73726563F0
S11300000C947E000C949B000C949B000C949B001D
S11300100C949B000C949B000C949B000C949B00F0
S11300200C949B000C949B000C949B000C949B00E0
S11300300C949B000C949B000C949B000C949B00D0
S11300400C949B000C949B000C949B000C949B00C0
S11300500C949B00B104B704B704B704B704B70405
S1130060B704B704B704B704B704B704B704B704B4
S1130070B704B704B704B704B704B704B704B704A4
S1130080B704B704B704B704B704B704B7048704C4
S1130090F8031B04B7049904B704B704B704B704FE
S11300A0B704B704B704B704B704B704B704B70474
S11300B0A604B7044804B704B7046604B704B70435
S11300C0B704B704B704B704B704B704B704750496
S11300D0F8030204B7049904B704B704B704B704D7
S11300E0B704B704B704B704B704B704B704B70434
S11300F0A604B7043904B704B704570411241FBE77
S1130100CFE5D4E0DEBFCDBF12E0A0E6B0E0EEE77D
S1130110FDE002C005900D92A035B107D9F722E0A9
S1130120A0E5B2E001C01D92A335B207E1F70E9439
S1130130EF000C94BD060C94000081B18C7F81B952
S113014080E280B908958093500286B7846A86BF9E
S113015006B607FEFDCF81B1887F883011F080316B
S113016011F48FEF08958EEF089590E0880F991F92
S113017090915002892B83B984E886BF06B607FEA6
S1130180FDCF80915002811106C081B1887F8831F2
S113019051F48FEF0895813041F481B1887F803428
S11301A031F48FEF08958EEF089580E008958EEF77
S11301B0089583B986B7806886BF06B607FEFDCF6B
S11301C081B1887F883211F48FEF08958EEF0895FE
S11301D086B7806986BF06B604FCFDCF08950E94E9
S11301E016020E94D6012FE788E391E02150804057
S11301F09040E1F700C000000E94FA0460E081E052
S11302000E946602C0E6D0E0DF93CF930E94B5035C
S113021060E082E00E946602DF93CF930E94B50300
S113022060E083E00E946602DF93CF930E94B503EF
S113023060E084E00E946602DF93CF930E94B503DE
S113024060E085E00E946602DF93CF930E94B503CD
S113025060E086E00E946602DF93CF930E94B503BC
S11302602FE78AE196E0215080409040E1F700C0FA
S113027000002FE78AE196E0215080409040E1F7AA
S113028000C000002FE78AE196E0215080409040B2
S1130290E1F700C000002FE78AE196E0215080409A
S11302A09040E1F700C000000E94D60160E082E0C7
S11302B00E9466028DE690E09F938F930E94B5039F
S11302C02FE78AE196E0215080409040E1F700C09A
S11302D000002FE78AE196E0215080409040E1F74A
S11302E000C000002FE78AE196E021508040904052
S11302F0E1F700C000002FE78AE196E0215080403A
S11303009040E1F700C000000E94D60162E380E063
S11303100E94CA042FE78AE196E021508040904071
S1130320E1F700C000002FE78AE196E02150804009
S11303309040E1F700C000002FE78AE196E02150E9
S113034080409040E1F700C000002FE78AE196E08A
S1130350215080409040E1F700C000008DB79EB767
S11303600E960FB6F8949EBF0FBE8DBF47CFCF93A6
S1130370C82F80E00E94A3008C2F0E94B500CF916B
S113038008950E94E80008950E94D9000895CF932B
S1130390C82F8CE30E94B70180E00E94C4018C2F17
S11303A00E94C4010E94C101CF910895CF93DF93AD
S11303B081E20E94C70180E00E94C7018FE70E948A
S11303C0C70182E20E94C70180E00E94C70187E062
S11303D00E94C7018CE30E94B70180E40E94C4011B
S11303E0C0E0D0E004C080E00E94C4012196C115A1
S11303F084E0D807C4F381E20E94C70180E00E9430
S1130400C7018FE70E94C70182E20E94C70180E012
S11304100E94C70187E00E94C7018CE30E94B701D4
S113042080E40E94C401DF91CF9108950E949D0051
S11304308EEA0E94C70185ED0E94C70180E80E94F0
S1130440C70188EA0E94C7018FE30E94C70183EDB8
S11304500E94C70180E00E94C70180E40E94C70196
S11304608DE80E94C70184E10E94C70180E20E94D6
S1130470C70180E00E94C70181EA0E94C70188EC9D
S11304800E94C7018AED0E94C70182E10E94C70150
S113049081E80E94C7018FEC0E94C70189ED0E9488
S11304A0C70181EF0E94C7018BED0E94C70180E460
S11304B00E94C70184EA0E94C70186EA0E94C7011C
S11304C08FEA0E94C7010E94D6010895CF93DF935B
S11304D0883000F56623F4F0D62FC82F809351029C
S11304E06093520281E20E94C7018D2F0E94C701CE
S11304F08FE70E94C70182E20E94C7018C2F0E94ED
S1130500C70187E00E94C7018CE30E94B70180E421
S11305100E94C401DF91CF910895809151028F5FB1
S113052087708093510260E00E9466020895CF9321
S1130530DF93D82F8091520290E005968038910580
S113054014F4DA3011F40E948D02DA3011F1D05231
S1130550C0E02D2F30E0F901EE0FFF1FEE0FFF1F5B
S1130560E20FF31FEC58FF4FEC0FF11D80810E9446
S1130570C401909152029F5F90935202CF5FC530A5
S113058041F780E00E94C401809152028F5F809302
S11305905202DF91CF910895CF93DF93EC0103C012
S11305A021960E94970288818111FACFDF91CF9121
S11305B008954F925F926F927F92AF92BF92CF92C3
S11305C0DF92EF92FF920F931F93CF93DF93CDB7F8
S11305D0DEB72A970FB6F894DEBF0FBECDBFA82EA4
S11305E06A017B01022F82E0A81220C01CC0802F68
S11305F090E0019741E050E002C0440F551F8A95F6
S1130600E2F7052E000C660B770B4C215D216E2161
S11306107F2181E0452B462B472B09F480E0805D48
S11306200E94970201500111E2CF52C0452B462B84
S1130630472B39F010E035C080E30E9497021F5F1A
S113064001C010E0101708F043C01A30A8F340C0EE
S1130650C114D104E104F104D1F0BC2C4A2C512C76
S1130660612C712CC701B601A30192010E94950669
S1130670C22ED32EE42EF52EE1E0F0E0EC0FFD1FA8
S1130680E10FF11DA29EB0181124B08209C00B30F5
S1130690E8F4E1E0F0E0EC0FFD1FE10FF11D108242
S11306A01F5F1017A8F212C0E12FF0E0319781E02C
S11306B090E08C0F9D1FE80FF91F80818A3010F0A5
S11306C0895C01C0805D0E94970211501111ECCF2A
S11306D02A960FB6F894DEBF0FBECDBFDF91CF913F
S11306E01F910F91FF90EF90DF90CF90BF90AF904C
S11306F07F906F905F904F9008958F929F92AF92EA
S1130700BF92CF92DF92EF92FF926B017C010E9425
S11307106B054B015C012FEFAB01BC018AE00E9429
S1130720D9028EE20E949702C501B4010E949A0583
S11307309B01AC01C701B6010E94FE0420E034E233
S113074044E759E40E9428060E946B05AB01BC01F2
S11307502FEF8AE00E94D902FF90EF90DF90CF90B4
S1130760BF90AF909F908F9008954F925F926F9239
S11307707F92AF92BF92EF92FF921F93CF93DF933A
S1130780CDB7DEB7FE013E96E190F1903F01F2C095
S1130790853209F0EAC0C7010196D7011196EC91A0
S11307A020ED2E0F2A3090F07C011FEF15C0812F11
S11307B0880F982F990F990F890F8E0F10ED180F2E
S11307C0BFEFEB1AFB0AD701EC9102C07C0110E0E9
S11307D080ED8E0F8A3058F38E2F90E0FC01B59790
S11307E0E435F10508F0C3C0E65DFF4F0C94B7068D
S11307F05301B2E0AB0EB11CF30180810E94970259
S11308003501B5C05301F2E0AF0EB11CD3016D90B8
S11308107C90772034F47194619471088DE20E9485
S11308209702A301770C660B770B212F8AE00E94B5
S1130830D90235019CC05301B4E0AB0EB11CF301E5
S1130840408051806280738077205CF4709460945F
S113085050944094411C511C611C711C8DE20E94F7
S11308609702212FB301A2018AE00E94D902350127
S11308707EC05301F2E0AF0EB11CD3014D915C91E7
S113088060E070E0212F8AE00E94D90235016FC038
S11308905301B4E0AB0EB11CF3014081518162817C
S11308A07381212F8AE00E94D902350160C053016F
S11308B0F2E0AF0EB11CD3014D915C9160E070E0A9
S11308C0212F80E10E94D902350151C05301B4E0C7
S11308D0AB0EB11CF3014081518162817381212FE0
S11308E080E10E94D902350142C05301F2E0AF0E0B
S11308F0B11CD3014D915C911F3F09F410E160E0FC
S113090070E0212F82E00E94D902350130C05301EA
S1130910B4E0AB0EB11CF30140815181628173815B
S11309201F3F09F410E1212F82E00E94D902350112
S11309301EC05301F4E0AF0EB11CD3016D917D9143
S11309408D919C910E947D03350111C05301B2E049
S1130950AB0EB11CF301808191810E94CC02350160
S113096006C085E20E94970202C00E949702FFEF30
S1130970EF1AFF0AD7018C9181110ACFDF91CF9131
S11309801F91FF90EF90BF90AF907F906F905F901A
S11309904F9008951F93CF93DF93982F990F11E0F1
S11309A0190F853018F5653608F5D62F60E0812FCC
S11309B00E946602C0E004C08FEF0E94C401CF5FB2
S11309C0CD17D0F3CD2F04C080E00E94C401CF5FC7
S11309D0C436D0F369E6812F0E9466024D2F50E0A1
S11309E060E070E023E08AE00E94D902DF91CF91B9
S11309F01F91089587EA0E94C70108955058BB27A4
S1130A00AA270E9416050C94EE050E94E00538F012
S1130A100E94E70520F039F49F3F19F426F40C9462
S1130A20DD050EF4E095E7FB0C94D705E92F0E9451
S1130A30FF0558F3BA17620773078407950720F078
S1130A4079F4A6F50C9421060EF4E0950B2EBA2F3A
S1130A50A02D0B01B90190010C01CA01A0011124C0
S1130A60FF27591B99F0593F50F4503E68F11A166C
S1130A70F040A22F232F342F4427585FF3CF4695FD
S1130A8037952795A795F0405395C9F77EF41F161F
S1130A90BA0B620B730B840BBAF09150A1F0FF0FE9
S1130AA0BB1F661F771F881FC2F70EC0BA0F621FD5
S1130AB0731F841F48F4879577956795B795F795C5
S1130AC09E3F08F0B0CF9395880F08F09927EE0F5A
S1130AD09795879508950E94070688F09F5798F088
S1130AE0B92F9927B751B0F0E1F0660F771F881F2F
S1130AF0991F1AF0BA95C9F714C0B13091F00E9449
S1130B002106B1E008950C942106672F782F8827D9
S1130B10B85F39F0B93FCCF3869577956795B3956F
S1130B20D9F73EF490958095709561957F4F8F4FDE
S1130B309F4F0895E89409C097FB3EF490958095E3
S1130B40709561957F4F8F4F9F4F9923A9F0F92F8F
S1130B5096E9BB279395F695879577956795B7950D
S1130B60F111F8CFFAF4BB0F11F460FF1BC06F5FF3
S1130B707F4F8F4F9F4F16C0882311F096E911C005
S1130B80772321F09EE8872F762F05C0662371F026
S1130B9096E8862F70E060E02AF09A95660F771F3A
S1130BA0881FDAF7880F9695879597F9089597F92E
S1130BB09F6780E870E060E008959FEF80EC0895FF
S1130BC000240A9416161706180609060895002428
S1130BD00A9412161306140605060895092E0394A2
S1130BE0000C11F4882352F0BB0F40F4BF2B11F416
S1130BF060FF04C06F5F7F4F8F4F9F4F089557FD75
S1130C009058440F551F59F05F3F71F04795880F76
S1130C1097FB991F61F09F3F79F08795089512160D
S1130C2013061406551FF2CF4695F1DF08C01616B9
S1130C3017061806991FF1CF86957105610508946A
S1130C400895E894BB2766277727CB0197F9089581
S1130C500E943B060C94EE050E94E00538F00E94C9
S1130C60E70520F0952311F00C94D7050C94DD05CD
S1130C7011240C9422060E94FF0570F3959FC1F382
S1130C80950F50E0551F629FF001729FBB27F00D36
S1130C90B11D639FAA27F00DB11DAA1F649F66278B
S1130CA0B00DA11D661F829F2227B00DA11D621FDA
S1130CB0739FB00DA11D621F839FA00D611D221F94
S1130CC0749F3327A00D611D231F849F600D211D78
S1130CD0822F762F6A2F11249F5750409AF0F1F0FB
S1130CE088234AF0EE0FFF1FBB1F661F771F881F64
S1130CF091505040A9F79E3F510580F00C94D705C0
S1130D000C9422065F3FE4F3983ED4F386957795DE
S1130D106795B795F795E7959F5FC1F7FE2B880F09
S1130D20911D9695879597F90895A1E21A2EAA1B0D
S1130D30BB1BFD010DC0AA1FBB1FEE1FFF1FA21787
S1130D40B307E407F50720F0A21BB30BE40BF50B84
S1130D50661F771F881F991F1A9469F7609570950D
S1130D60809590959B01AC01BD01CF010895EE0FD4
S1110D70FF1F0590F491E02D0994F894FFCF35
S1130D7E48656C6C6F20576F726C64210041776507
S1130D8E626F2100000000000000002F0000000729
S1130D9E000700147F147F14242A7F2A12231308B9
S1130DAE646236495522500005030000001C22419E
S1130DBE000041221C0014083E081408083E0808CE
S1130DCE0000A06000080808080800606000002009
S1130DDE100804023E5149453E00427F40004261E4
S1130DEE5149462141454B311814127F1027454570
S1130DFE45393C4A49493001710905033649494987
S1130E0E36064949291E00363600000056360000C3
S1130E1E081422410014141414140041221408025C
S1130E2E01510906324959513E7C1211127C7F49F7
S1130E3E4949363E414141227F4141221C7F494965
S1130E4E49417F090909013E4149497A7F08080849
S1130E5E7F00417F41002040413F017F0814224121
S1130E6E7F404040407F020C027F7F0408107F3E8B
S1130E7E4141413E7F090909063E4151215E7F09E8
S1130E8E192946464949493101017F01013F404034
S1130E9E403F1F2040201F3F4038403F631408143A
S1130EAE6307087008076151494543007F414100BB
S1130EBE55AA55AA550041417F000402010204407F
S1130ECE40404040000305000020545454787F48AD
S1130EDE4444383844444420384444487F385454B5
S1130EEE5418087E09010218A4A4A47C7F080404E3
S1130EFE7800447D40004080847D007F10284400AB
S1130F0E00417F40007C041804787C08040478387F
S1130F1E44444438FC2424241818242418FC7C0843
S1130F2E0404084854545420043F4440203C404098
S1130F3E207C1C2040201C3C4030403C442810287F
S1130F4E441CA0A0A07C4464544C4400107C820039
S1130F5E0000FF000000827C100000060909060054
S9030000FC
