S01C000050726163746963615F31365F506961696E69746F2E737265637F
S11300000C942A000C943C000C943C000C943C008E
S11300100C943C000C943C000C943C000C943C006C
S11300200C943C000C943C000C943C000C940F0188
S11300300C943C000C943C000C943C000C943C004C
S11300400C943C000C943C000C943C000C941E0159
S11300500C943C0011241FBECFE5D4E0DEBFCDBF1D
S113006020E0A0E6B0E001C01D92A336B207E1F79C
S11300700E94F3000C9428010C94000090BD89B9EF
S113008088E98AB986E880BD0895FC01808190E002
S113009002C0959587956A95E2F7F1E08F27817004
S11300A00895CF93C82F65E08BE290E00E9445004D
S11300B08111F9CFCCB9CF9108950F931F93CF93AA
S11300C08C01C62F83ED90E30197F1F700C0000087
S11300D06C2FC8010E9445008111FACF83ED90E393
S11300E00197F1F700C00000CF911F910F9108957F
S11300F089B38F3F09F476C089B38F3EB9F148F4D0
S11301008F3B09F445C08F3DD1F18F3709F04CC0C6
S113011048C08B3FC9F018F4873FF9F045C08D3FC4
S113012059F08E3F09F040C081E38093610087E37A
S11301308CBF1092620038C082E3809361008CBF50
S113014081E08093620030C083E3809361008EE29B
S11301508CBF82E08093620027C084E380936100B7
S11301608CE28CBF83E0809362001EC085E38093A1
S1130170610087E28CBF84E08093620015C086E34F
S11301808093610083E28CBF85E0809362000CC0A1
S113019087E3809361008FE18CBF86E080936200E7
S11301A003C089E4809361009091610080916000B4
S11301B098130EC083B78D5F83BF6091620089E39B
S11301C090E00E945D0083B7835083BF12BE06C0D7
S11301D06091620089E390E00E945D00809161007B
S11301E00E945100089578948CE090E00E943E00B3
S11301F08AB38ABB8BB38FEF8BBB97B387BB88B3B0
S113020088BB83E088BF82E089BF12BE8BE183BFD5
S11302101CBE83B7835083BF0E947800FDCF1F921A
S11302200F920FB60F9211248F938CB180936000BC
S11302308F910F900FBE0F901F9018951F920F92E1
S11302400FB60F9211240F900FBE0F901F901895A8
S1070250F894FFCF4C
S9030000FC
