S01B0000455032416E6472654E69636173696F526F6D6F2E73726563F5
S11300000C942A000C9447000C9447000C9447006D
S11300100C9447000C9447000C9447000C94470040
S11300200C9447000C9447000C9447000C942B0448
S11300300C9447000C9447000C9421040C94470042
S11300400C9447000C9447000C9447000C948103D3
S11300500C94470011241FBECFE5D4E0DEBFCDBF12
S113006010E0A0E6B0E0E0E4F9E002C005900D92F3
S1130070A837B107D9F720E0A8E7B0E001C01D9286
S1130080A938B207E1F70E9427030C949E040C944C
S1130090000085B3806485BB00C085B38F7B85BBBE
S11300A00895CF93DF93D82F662321F085B3806121
S11300B085BB03C085B38F7E85BB85B38F7D85BB30
S11300C084B38F6084BBC5B3C07F8D2F82958F703E
S11300D08C2B85BB0E944900DF70DC2BD5BB0E94B2
S11300E04900CF60C5BBDF91CF910895882321F0EB
S11300F085B3806185BB03C085B38F7E85BB85B323
S1130100806285BB84B3807F84BB85B3806485BBF8
S113011000C093B39295907F85B38F7B85BB00C05D
S113012085B3806485BB00C083B38F7025B32F7BF8
S113013025BB892B089580E00E9476008823DCF398
S113014082E090E00197F1F780E00E947600089544
S1130150CF93C82F0E949B0060E08C2F0E94510017
S1130160CF910895611104C080580E94A800089599
S113017080540E94A800089581E00E94A800089578
S1130180CF93C82F0E949B00CA3049F4803410F4E6
S113019080E401C080E080580E94A80004C061E0AF
S11301A08C2F0E945100CF910895CF93DF93FC01CF
S11301B003C00E94C000FE01EF01219680818111DD
S11301C0F8CFDF91CF9108951F93CF93DF93182F2A
S11301D084B38F6784BB80E89EE30197F1F785B30E
S11301E0826085BB85B3816085BB0E94490080E83D
S11301F093E10197F1F70E944900C0E4D0E0CE01F9
S11302000197F1F70E944900CE010197F1F785B3F8
S11302108E7F85BB0E9449002197F1F788E20E94F6
S1130220A80088E00E94A8000E94BC0086E00E940A
S1130230A800812F0E94A800DF91CF911F910895FB
S113024090BD89B988E98AB98EE880BD0895CF92B6
S1130250DF92EF92FF920F931F93CF93DF936B0183
S11302607C018A01E9012AE030E040E050E00E948C
S11302704904F801208305C0FAE0CF1AD108E10847
S1130280F1088AE0C816D104E104F104ACF7C8828D
S1130290DF91CF911F910F91FF90EF90DF90CF905E
S11302A0089520E00CC0E3E2F4EF3197F1F700C0C9
S11302B000009F5F01C090E09430A8F32F5F2817DF
S11302C0D0F30895982F990F990F990F890F8B5F89
S11302D00895982F990F990F990F981B892F815F73
S11302E008951092840010928300FC01608170E0F4
S11302F080E090E023E830E044E850E00E942701E9
S113030080918400805D0E94C00080918300805DA4
S11303100E94C000089590E002C0965F8150811150
S1130320FCCF892F860F08951092790010927800DF
S113033018BA0E94BC0060E084E00E94B20083E628
S113034090E00E94D50083ED90E30197F1F700C09F
S113035000000895FC01808190E002C09595879586
S11303606A95E2F7F1E08F2781700895CF93C82F43
S113037065E08BE290E00E94AA018111F9CFCCB92B
S1130380CF910895FC01208181E090E002C0880FA4
S1130390991F6A95E2F782230895CF93DF93C82FBC
S11303A0D62F61E08CE390E00E94C2018111F9CF65
S11303B08C2F90E09FBB8EBBDDBBF8948CB3846024
S11303C08CBB8CB382608CBB7894DF91CF91089501
S11303D0CF93DF932091780030917900211532403A
S11303E008F05CC0853061F018F4843059F004C022
S11303F0863021F0873041F0D0E007C0D2E005C05C
S1130400D3E003C0D4E001C0D1E0C82F6091620002
S1130410809188000E948B012091780030917900AE
S1130420682F822F0E94CD0160916000809161004D
S11304300E948B012091780030917900682F81E02F
S1130440820F0E94CD0180917800909179006D2FE8
S11304508E5F0E94CD016091800080917800909120
S113046079008D5F0E94CD016C2F86E390E00E949D
S1130470AA01882351F028B381E090E002C0880FDC
S1130480991FCA95E2F7822B88BB809178009091DE
S1130490790004969093790080937800DF91CF914E
S11304A008950E94BC0060E080E00E94B200809148
S11304B08800805D0E94C00080916200805D0E947F
S11304C0C0008AE30E94C00080916100805D0E94A8
S11304D0C00080916000805D0E94C00080E687B902
S11304E086B1806486B966E086E290E00E94C2012B
S11304F08111F9CF85B1809380008091800090E0D4
S11305009C01220F331F220F331F820F931F6FEFA3
S113051070E00E943504CB01770FAA0BBB0B8093CC
S11305207C0090937D00A0937E00B0937F00809127
S11305307C0090917D00A0917E00B0917F000E948C
S113054062018093820060E08EE00E94B20082E843
S113055090E00E94710187E080937B0010927A0002
S113056087B1895F87B96AC086B1806486B966E05D
S113057086E290E00E94C2018111F9CF85B1809397
S113058080008091800090E09C01220F331F220F95
S1130590331F820F931F6FEF70E00E943504CB016D
S11305A0770FAA0BBB0B80937C0090937D00A093E4
S11305B07E00B0937F0080917C0090917D00A0919B
S11305C07E00B0917F000E94690180938100809138
S11305D07A0061E00E94B2009091810080918200D3
S11305E0981738F46091810080917B000E94E801A3
S11305F014C060917B0086E390E00E94C2018823CE
S113060061F020917B0081E090E002C0880F991F87
S11306102A95E2F798B3892788BB81E890E00E9485
S1130620710187B1815087B980917B00815080939B
S11306307B0080917A008D5F80937A0080917B00AB
S1130640843008F091CF8CE30E945101089578948E
S11306501ABA8EEF81BB81E082BB8FEF87BB18BAD9
S113066080E687B98BE986B982B782BF88B7826092
S113067088BF88B7816088BF89B7826089BF83B724
S1130680886083BF83B7846083BF83B7816083BF7F
S113069083EF8CBF8CE00E94E4008CE090E00E9429
S11306A0200160E080E390E00E94AA01882319F011
S11306B00E949401F6CF60E080E390E00E94C201C2
S11306C0882379F380917800909179008115924084
S11306D018F40E945102E5CF0E94BC0060E088E05B
S11306E00E94B2008CE690E00E94D50081E40E9452
S11306F0B60185E00E9451011092790010927800B1
S1130700D0CF1F920F920FB60F9211242F933F93C5
S11307104F935F936F937F938F939F93AF93BF9305
S1130720EF93FF93809185008F5F80938500809184
S11307308500843009F074C0809186008F5F8093B7
S1130740860010928500809186008A3039F41092D8
S11307508600809187008F5F809387008091870057
S1130760863039F410928700809160008F5F809307
S11307706000809160008A3039F4109260008091AA
S113078061008F5F8093610080916100863039F44D
S113079010926100809162008F5F8093620080916B
S11307A062008A3039F410926200809188008F5F71
S11307B08093880080918800823081F48091620067
S11307C0843061F4109288001092620010926100EB
S11307D010926000109287001092860060E080E31F
S11307E090E00E94C2018823D9F060E080E00E947A
S11307F0B20080918800805D0E94C00080916200F8
S1130800805D0E94C0008AE30E94C0008091610064
S1130810805D0E94C00080916000805D0E94C000E5
S1130820FF91EF91BF91AF919F918F917F916F91C4
S11308305F914F913F912F910F900FBE0F901F909A
S113084018951F920F920FB60F9211240F900FBE9E
S11308500F901F9018951F920F920FB60F921124AC
S11308600F900FBE0F901F90189597FB072E16F44C
S1130870009407D077FD09D00E94680407FC05D0D6
S11308803EF4909581959F4F0895709561957F4FA3
S11308900895052E97FB1EF400940E94600457FDF2
S11308A007D00E947C0407FC03D04EF40C9460042F
S11308B050954095309521953F4F4F4F5F4F089588
S11308C090958095709561957F4F8F4F9F4F0895B8
S11308D0AA1BBB1B51E107C0AA1FBB1FA617B70762
S11308E010F0A61BB70B881F991F5A95A9F780957E
S11308F09095BC01CD010895A1E21A2EAA1BBB1B41
S1130900FD010DC0AA1FBB1FEE1FFF1FA217B307D7
S1130910E407F50720F0A21BB30BE40BF50B661FED
S1130920771F881F991F1A9469F7609570958095B1
S113093090959B01AC01BD01CF010895F894FFCFC0
S1130940090408434F4E53554C5441005265696E97
S10B09506963696F2E2E2E006D
S9030000FC
