:020000020000FC
:100000000C942A000C9455000C9456000C94570044
:100010000C9458000C9459000C945A000C945B00FA
:100020000C945C000C945D000C945E000C945F00DA
:100030000C9460000C9461000C9462000C946300BA
:100040000C9464000C9465000C9466000C9467009A
:100050000C94680004E00EBF0FE50DBF00E00ABB82
:100060000FEF0BBB0FEF01BB00E002BB10E021E084
:10007000C89B01C0FDCF0DD009D00BD0120F1A3094
:1000800011F012BBF5CF10E012BBF2CFC89BFECF30
:10009000089535E644EA4A95F1F73A95D9F731E003
:1000A0003A95F1F7000000000895189518951895F5
:1000B00018951895189518951895189518951895D8
:1000C00018951895189518951895189518951895C8
:0200D000189581
:00000001FF
