:020000020000FC
:100000000C942A000C9458000C9459000C945A003B
:100010000C945B000C945C000C945D000C945E00EE
:100020000C945F000C9460000C9461000C946200CE
:100030000C9463000C9464000C9465000C946600AE
:100040000C9467000C9468000C9469000C946A008E
:100050000C946B0004E00EBF0FE50DBF0FEF07BB64
:1000600000E002BF00E00CBF0CE603BF05E00CBFE0
:10007000E1E0043149F0043051F00CD0E0FD03958B
:10008000E1FD0A950CBFF5CFEE0F0A95F2CF03956F
:10009000E695EFCF14E22CEB34EC3A95F1F72A9584
:1000A000D9F71A95C1F711E01A95F1F700000895F4
:1000B00018951895189518951895189518951895D8
:1000C00018951895189518951895189518951895C8
:0800D000189518951895189574
:00000001FF
